:1000000009C00EC00DC00CC00BC00AC009C008C09A
:1000100007C006C011241FBECFE9CDBF14D054C005
:10002000EFCFC29A40E34A95F1F7C29880E090E0A2
:1000300020E030E04599C9012F5F3F4F211548E08E
:100040003407C1F7089584E187BB18B810E0C0E019
:10005000D0E0E7DFC817D90708F4EC011F5F1038BC
:10006000C1F723E080E490E0C49AEFECF2E031972E
:10007000F1F700C00000C498EFECF2E03197F1F71F
:1000800000C00000019781F7FFEF3FED81E0F150E4
:1000900030408040E1F700C00000215019F724975C
:1000A0009FEFE5EAFEE09150E040F040E1F700C04C
:1000B0000000B7DF8C179D0728F4C49A80EF90E00A
:0C00C0000197F1F7C498F5CFF894FFCF3A
:00000001FF
